:020000040800F2
:10000000C00A0010310200085B2B0008F727000827
:10001000592B0008FD0800082B40000800000000D4
:10002000000000000000000000000000C1360008D1
:1000300011090008000000005D2B0008C53600080B
:100040004B0200084B0200084B0200084B0200085C
:100050004B0200084B0200084B0200084B0200084C
:100060004B020008150900084B0200084B0200086B
:100070004B0200084B0200084B0200084B0200082C
:100080004B0200084B0200084B0200084B0200081C
:100090004B0200084B0200084B0200084B0200080C
:1000A0004B0200084B0200084B0200084B020008FC
:1000B0004B0200084B0200084B0200084B020008EC
:1000C0004B0200084B0200084B0200084B020008DC
:1000D0004B0200084B0200084B0200084B020008CC
:1000E0004B0200084B0200084B0200084B020008BC
:1000F0004B0200084B0200084B0200084B020008AC
:100100004B0200084B0200084B0200084B0200089B
:100110004B0200084B0200084B0200084B0200088B
:100120004B0200084B0200084B0200084B0200087B
:100130004B0200084B0200084B0200084B0200086B
:100140004B0200084B0200084B0200084B0200085B
:100150004B0200084B0200084B0200084B0200084B
:100160004B0200084B0200084B0200084B0200083B
:100170004B0200084B0200080000000000000000D5
:100180004B0200084B02000800F002F800F041F8B2
:100190000AA090E8000C82448344AAF10107DA45E2
:1001A00001D100F036F8AFF2090EBAE80F0013F0F3
:1001B000010F18BFFB1A43F00103184754600000F9
:1001C00084600000103A24BF78C878C1FAD852077A
:1001D00024BF30C830C144BF04680C6070470000C1
:1001E0000023002400250026103A28BF78C1FBD840
:1001F000520728BF30C148BF0B607047642900F028
:10020000EB80002070471FB505F0A2FD1FBD10B5A3
:1002100010BD00F07CFA1146FFF7F5FF05F02CFB4E
:1002200000F09AFA03B4FFF7F2FF03BC00F0A2FA61
:100230000948804709480047FEE7FEE7FEE7FEE77A
:10024000FEE7FEE7FEE7FEE7FEE7FEE704480549B6
:10025000054A064B704700007D37000889010008F9
:10026000C0040010C00A0010C0060010C006001034
:1002700053EA020C00F069802DE9F04B4FF00006C4
:10028000002B1FBFB3FA83F503FA05F424FA05F631
:100290005E4012BF1643B2FA82F502FA05F4C5F1C8
:1002A00020051EBF22FA05FC44EA0C04203556EA5C
:1002B000044C4FEA144418BF641C4FF000084FF080
:1002C0000009904271EB030C39D3002919BFB1FA30
:1002D00081F701FA07F6B0FA80F700FA07F6C7F1DE
:1002E00020071EBF20FA07FC46EA0C062037B6FBA3
:1002F000F4FCA7EB0507103F07F01F0BCBF120061E
:100300000CFA0BFB2CFA06F644BFB3460026202F4E
:10031000A4BF5E464FF0000B5BEA060C08BF4FF02F
:10032000010B19EB0B09ABFB027C48EB0608C01B69
:1003300006FB02CC0BFB03CC71EB0C01C1E70B46B7
:10034000024641464846BDE8F08B13B54FF0000029
:100350004FF00001AFF30080BDE81C407047000083
:100360000FB41CB5074B06AA7B446946009005985C
:1003700000F0B5F90020694600F0C4F91CBC5DF836
:1003800014FB00009903000070B5044685690068FD
:10039000C10601D5302600E02026C00707D070BD79
:1003A000D4E9012130469047206A401C20626D1E2E
:1003B000F6D570BD70B5044685690078C00707D1D1
:1003C00070BDD4E9012120209047206A401C2062A2
:1003D0006D1EF6D570BD00002DE9F04106460024E3
:1003E00010687529314616A510D0AFF3008000289B
:1003F00002DA404213A507E031688A0701D512A549
:1004000002E0490704D511A5012401E0AFF3008003
:1004100000210A2206F1240709E0B0FBF2FCB0FB40
:10042000F2F302FB1C00303078541846491C0028B7
:10043000F3D123462A463046BDE8F04100F0F0B83B
:10044000000000002D0000002B0000002000000034
:100450002DE9F05F894604464FF0000ADFF824B129
:10046000FB44C0F820A02046E168884700287DD0E2
:10047000252806D0D4E901219047206A401C20623B
:10048000F1E700255F462046E168884720280646B8
:1004900007DB312E05D2B81910F8200C08B105433E
:1004A000F1E7A80701D525F00405C4F81CA0002732
:1004B000C4F818A02A2E09D0304603F0C7FD38B37F
:1004C00004EB8708303EC8F8186019E059F8041B9F
:1004D000204604EB87029161E1688847012F0646B8
:1004E00018D1E069002820DA25F020051DE0D8F8B1
:1004F000180000EB800006EB40003038C8F8180008
:100500002046E1688847064603F0A0FD0028EED1AA
:10051000012F0AD02E2E08D12046E16888477F1C83
:100520000646022F45F02005C4DBA069002803DA47
:10053000404245F00105A061E80701D025F0100513
:10054000A6B1A6F14100192802D8203645F400656D
:100550004A463146204625604D46FFF74FFE60B1C2
:10056000012807D0ED1D25F0070000E007E000F1AD
:10057000080978E705F1040975E730467AE7206A4B
:1005800000F002B8985D000030BCBDE8C09F10B517
:10059000431C02E010F8011B71B18107FAD14FF042
:1005A000013202C88C1A8C4314EAC211F9D0C01A65
:1005B0000A0603D0C01E10BDC01A10BD0A0401D027
:1005C000801E10BD0902FCD0401E10BD4FF000027D
:1005D00000B5134694469646203922BFA0E80C5039
:1005E000A0E80C50B1F12001BFF4F7AF090728BF14
:1005F000A0E80C5048BF0CC05DF804EB890028BF90
:1006000040F8042B08BF704748BF20F8022B11F0B8
:10061000804F18BF00F8012B704770477047704734
:100620002DE9F0470D4699469246044600F124080C
:100630000168880604D5E06921F01001216000E01E
:100640000120A84201DD471B00E00027A1697A19BB
:1006500002EB0900081AA0612078C00602D42046E7
:10066000FFF792FE002608E0D4E901211AF80600FF
:100670009047206A401C761C20624E45F4DB2078AF
:10068000C0060AD52046FFF77FFE06E0D4E9012127
:1006900030209047206A401C2062381EA7F10107D5
:1006A000F4DC07E0D4E9012118F805009047206A3E
:1006B000401C2062281EA5F10105F3DC2046FFF74F
:1006C00079FE2078000602D50220BDE8F0870120DF
:1006D000FBE7000001694A1C02610878704700B519
:1006E0008FB0CDE901310021059105497944CDE96B
:1006F000031011466846FFF7ABFE0FB000BD0000C7
:10070000E5FFFFFF0A6802F8010B0A6070477546B3
:1007100000F02CF8AE4605006946534620F007006D
:10072000854618B020B5FFF791FDBDE820404FF099
:1007300000064FF000074FF000084FF0000B21F0CB
:100740000701AC46ACE8C009ACE8C009ACE8C00998
:10075000ACE8C0098D46704710B50446AFF3008081
:100760002046BDE81040FFF75DBD0000004870471F
:100770005C04001001491820ABBEFEE72600020011
:1007800070474FF0904320B101220421184600F039
:1007900052BA0022F9E7000010B5074B48B1012218
:1007A0002021184600F047FABDE81040642000F010
:1007B00013B90022F4E700000008004810B501203A
:1007C00000F08EF800F05AF840F6B83000F004F966
:1007D00001490120087010BD5400001010B504211B
:1007E000034801F0B7FEBDE81040642000F0F4B803
:1007F0006001001010B5FFF7F1FF0020FFF7CCFFFC
:1008000000F026F800F010F84FF47A7000F0E4F8E9
:1008100000F01EF80020FFF7B4FF00F03BF8BDE841
:10082000104000F043B8000010B5084C0022102121
:10083000204600F000FA642000F0CEF820460122A5
:10084000BDE81040102100F0F6B900000008004893
:1008500070B5094D4FF4007400222146284600F07F
:10086000EAF9642000F0B8F821462846BDE8704057
:10087000012200F0E0B90000000400480349102004
:10088000642308700122024801F068BA5500001084
:1008900098000010034911206423087001220248C7
:1008A00001F05CBA55000010980000100A4810B51D
:1008B000402101701921417001466423022207483A
:1008C00001F04CFA044964231A22BDE81040891C47
:1008D000024801F043BA00005500001098000010D3
:1008E000054B4FF48071012803D00022184600F018
:1008F000A2B90122FAE7000000040048FEE7000068
:1009000001222021014800F096B90000000C0048A7
:100910007047000038B51448007801281ED16420C3
:10092000124C00901B2312491248226801F0DDFA94
:10093000206811491B3020600A681049904201D19B
:1009400001220A700E4A1268904203D10D482060BD
:10095000022008700C498888401C8880BDE8384017
:10096000082000F04DB800005400001000000010F6
:100970000000002098000010080000100400001083
:1009800014000010786900201800001072B6FEE70D
:10099000002200F001B8000030B50E4B05460120E2
:1009A0005C7A002C14D1587A1C54587A03EB8000DE
:1009B00045605D7A03F108002A54587A421C5A7245
:1009C000303008703A2048702F208870CC7000209A
:1009D00030BD00005004001070B5044600F030F93E
:1009E0000546601C02D004480078044400F028F951
:1009F000401BA042FAD370BD3C00001070470000BD
:100A0000044910B50A68024202D00860FFF7F6FFF9
:100A100010BD0000140401402DE9F04FDFF8EC9107
:100A200000220127A9F1040B85B003254FF00F0C1C
:100A300009F1040AABF1040EE0E000BF07FA02F48A
:100A400016EA04037ED00E7906F00306012E01D0CB
:100A5000022E1FD186680096560005FA06F8049605
:100A6000009E26EA08060096D1F80C80049E08FA3B
:100A700006F8009E48EA0608C0F80880466891F823
:100A80000480A643C8F3001808FA02F848EA0608EA
:100A9000C0F80480D1F804806FEA0806B6070AD1CE
:100AA000C66AA643C8F3C00494403443C4620C79B8
:100AB000E443A4070AD0C4684FEA420805FA08F6DE
:100AC000B4438E6806FA08F62643C6600C7904F033
:100AD0000304022C11D1D40800EB84060296D6F848
:100AE00020805407E60E0CFA06F428EA04080C6984
:100AF000B440029E44EA0804346204685600029638
:100B000005FA06F6B4430E7906F00308029E08FAC9
:100B100006F848EA0408C0F800804C6814F4403F26
:100B20006BD03B4C266E46F001062666246E22F002
:100B3000030604F001040094364C34440294A46883
:100B4000960700E059E04FEA16780CFA08F6B4432D
:100B5000B0F1904F04D0304EB04203D101261BE0DB
:100B6000002619E02D4EB04201D1022614E02C4E91
:100B7000B04201D103260FE02A4EB04201D1042633
:100B80000AE0294EB04201D1052605E0274EB042C9
:100B900001D1062600E0072606FA08F62643029C45
:100BA000A660D9F800404E46D1F804809C435FEA25
:100BB000C82800D51C433460DAF800405646D1F806
:100BC00004809C435FEA882800D51C433460DBF82E
:100BD00000405E46D1F804809C435FEA883800D527
:100BE0001C433460DEF800407646D1F804809C4314
:100BF0005FEAC83800D51C433460521C0B681E469F
:100C0000D3407FF41BAF05B000F012B808040140D8
:100C100000100240000001400004004800080048A5
:100C2000000C00480010004800140048001800485C
:100C300030BCBDE8C08F0AB18161704781627047E6
:100C400001488068704700003C000010024881683D
:100C500002781144816070473C00001010B50024F8
:100C6000032000F071F8002000F008F808B101241A
:100C700001E000F025F8204610BD000070B50E4ED2
:100C800005460024307898B14FF47A71B1FBF0F04A
:100C90000A490968B1FBF0F001F05BFA40B9102D88
:100CA00006D200222946501E00F02EF8756000E0A2
:100CB0000124204670BD00003C00001048000010D8
:100CC000094808B5016E41F001010166016E01F0AD
:100CD00001010091816D41F080518165806D00F0CE
:100CE0008050009008BD000000100240002809DB81
:100CF00000F01F02012191404009800000F1E02036
:100D0000C0F8001170470000F0B40E4B1B680C4691
:100D1000C3F30223C3F10705042D00D90425191DCF
:100D2000072901D2002300E0DB1E012606FA05F1A7
:100D3000491E214099409E40761E16403143F0BC2A
:100D400003F074B90CED00E0064900F007020868F2
:100D50004FF6FF03184040EA0220034A10430860A0
:100D6000704700000CED00E00000FA051649B0F5F0
:100D7000007F0868C0F3412009D0022805D0086828
:100D800020F4C06040F480600860002070470128B3
:100D9000FBD0086820F4C06040F4007008600B4885
:100DA0003222006850430A4AB0FBF2F0401C00E0D7
:100DB000401E4A69520501D50028F9D1486940050D
:100DC000E3D5032070470000007000404800001089
:100DD00040420F000248006800F4C0607047000005
:100DE000007000400248016841F480710160704762
:100DF000007000400248016841F004010160704742
:100E0000001002402DE9F84F044600270088E54D08
:100E10003E46010504F1200B1DD5606E78B1B0F59A
:100E2000800F11D0B0F5000F04D0B0F5400F22D0E4
:100E300001270FE0E86840F48030E8601BE0002103
:100E4000201D01F08DFE03E00021584601F01EFF39
:100E5000070010D03E462088C00426D5A06EC0B141
:100E6000B0F1807F1AD0B0F1007F0DD0B0F1407F9B
:100E700019D0012718E0D5F88800616E20F44000F1
:100E80000843C5F88800E6E7E86840F48030E86089
:100E900009E00021201D01F063FE03E00021584617
:100EA00001F0F4FE0746F7B13E46206880033AD5CC
:100EB000A86D4FF00008C00009D4A86D40F0805024
:100EC000A865A86D4FF0010800F080500090DFF891
:100ED000D8A2DAF8001041F48071CAF80010FFF7C8
:100EE000AFFE814610E0D5F88800A16E20F040707A
:100EF0000843C5F88800D8E7FFF7A2FEA0EB090079
:100F0000022801D9032705E0DAF80000C005F3D56F
:100F1000002F7CD04FEA0706B8F1000F03D0A86D70
:100F200020F08050A8652078C00707D0D5F8880049
:100F3000A16B20F003000843C5F8880020788007E3
:100F400007D5D5F88800E16B20F00C000843C5F800
:100F500088002078400707D5D5F88800216C20F05C
:100F600030000843C5F888002078000707D5D5F879
:100F70008800616C20F0C0000843C5F88800207824
:100F8000C00607D5D5F88800A16C20F4407008434E
:100F9000C5F888002078800607D5D5F88800E16C70
:100FA00020F440600843C5F888002088800507D5F4
:100FB000D5F88800E16D20F440200843C5F888008A
:100FC0002088400507D5D5F88800216E20F4401010
:100FD0000843C5F888002078400607D5D5F8880072
:100FE000216D20F440500843C5F8880020780006A1
:100FF00007D5D5F88800616D20F440400843C5F856
:1010000088002088C00509D5D5F8880000E01CE0DC
:10101000A16D20F440300843C5F8880020884FF0C7
:10102000006780044FF080684FD5D5F88800E16EE6
:1010300020F040600843C5F88800E06EB8423CD11B
:10104000E86840F48010E8603FE0D5F8900010F4C4
:10105000407015D0D4F88410814211D0D5F890009A
:10106000D5F8901020F4407041F48031C5F890100C
:10107000D5F8901021F48031C5F89010C5F8900093
:10108000C00710D0FFF7DCFD074641F2883906E0C3
:10109000FFF7D6FDC11B494501D903263CE7D5F82A
:1010A00090008007F4D5D5F89000D4F8841020F48F
:1010B00040700843C5F890002EE7404505D1012156
:1010C000201D01F04DFD00B106462068000317D534
:1010D000D5F88800216F20F040600843C5F88800EB
:1010E000206FB84204D1E86840F48010E86007E05F
:1010F000404505D10121201D01F032FD00B1064619
:101100002068400317D5D5F88800616F20F0406053
:101110000843C5F88800606FB84204D1E86840F41D
:101120008010E86007E0404505D10121201D01F055
:1011300017FD00B10646208840041AD5D5F888006E
:10114000A16F20F040500843C5F88800A06FB0F1AF
:10115000805F03D0B0F1005F05D00AE00221201DBE
:1011600001F0FEFC03E00221584601F08FFD00B1C2
:1011700006462088000407D5D5F88800E16F20F0E6
:1011800080400843C5F888002068C00307D555F89B
:10119000880FD4F8801020F00040084328603046C3
:1011A00000F004B8001002400070004018BCBDE818
:1011B000E08F00002DE9F0470F4605006BD0494E47
:1011C000306800F00700B84209D2306820F007000C
:1011D00038433060306800F00700B8425BD12878AF
:1011E000414C80070AD5A868A16801F0F001884247
:1011F00004D9A16821F0F0010143A1602878C0075B
:101200002CD06868032811D0022812D0216898B128
:10121000490500293FDAA16821F003010143A160DB
:10122000FFF70EFD804641F2883910E02168890100
:10123000EFE721688903ECE78907EAE7FFF700FD9C
:10124000A0EB0801494502D90320BDE8F087A0685A
:10125000696800F00C00B0EB810FEFD128788007AF
:101260000AD5A868A16801F0F001884204D2A168FB
:1012700021F0F0010143A160306800F00700B8429E
:101280000BD9306820F0070038433060306800F038
:101290000700B84201D00120D7E72878400705D5DC
:1012A000A068E96820F4E0600843A060287800079F
:1012B00006D5A068296920F4605040EAC100A0600A
:1012C00000F03EF8A168094AC1F30311515C01F036
:1012D0001F01C8400649086006480068BDE8F0479D
:1012E000FFF7CCBC00200240001002405C5D00080B
:1012F0004800001040000010054806490068896851
:10130000054AC1F30221515C01F01F01C84070473A
:1013100048000010001002409C5D00080548064986
:1013200000688968054AC1F3C221515C01F01F01C0
:10133000C840704748000010001002409C5D000843
:1013400070B52549002318468A68CC6812F00C0253
:1013500004F00306214C4FEA640509D00C2A05D09D
:10136000042A32D0082A00D1284670BD012E10D19F
:101370000B681B0704D4D1F89430C3F3032302E0B5
:101380000B68C3F30313164E56F82330DAB10C2A58
:10139000EBD1C86800F00300022818D0032818D049
:1013A0001846CA68CB68C2F30212C3F3062343434C
:1013B000521CB3FBF2F2C868C0F34160401C40000D
:1013C000B2FBF0F070BD184670BD204670BD2046DF
:1013D000E7E72846E5E70000001002400024F4009B
:1013E0006C5D00082DE9F84304006FD0FD4DA8683E
:1013F00000F00C06E86800F003072078C00664D50A
:1014000076B10C2E01D1012F0AD0A06900282868DE
:101410007AD040F001002860FFF712FC80465DE0C2
:101420002868800702D5A0690028DED0216A2868D4
:10143000000703D5286800F0F00004E0D5F8940018
:10144000F02202EA1010814216D9084601F0A2FCEF
:1014500000283BD1286840F0080028602868216AED
:1014600020F0F000084328606868E16920F47F40BC
:1014700040EA0120686016E0286840F00800286013
:101480002868216A20F0F000084328606868E16954
:1014900020F47F4040EA0120686026B9206A01F00C
:1014A00079FC0028D5D1FFF74BFFA968CE4AC1F3DC
:1014B0000311515C01F01F01C840CC490860CC48C1
:1014C0000068FFF7DBFB00287ED12EE0CAE000BFFA
:1014D000FFF7B6FBA0EB0800022876D82868800743
:1014E000F6D5286840F0080028602868216A20F0B6
:1014F000F000084328606868E16920F47F4040EA12
:101500000120686011E0FFE720F001002860FFF78C
:1015100097FB804606E000BFFFF792FBA0EB0800B8
:101520000228DAD828688007F6D42078C00740D08F
:10153000082E18D00C2E01D1032F14D06068B0F5FE
:10154000803F17D0B0F5A02F286817D020F4803046
:101550002860286820F4802028606068E0B1FFF7E8
:101560006FFB804614E02868800322D5606800285D
:1015700078D01EE0286840F48030EDE740F4802009
:101580002860F7E7FFF75CFBA0EB08006428A4D80D
:1015900028688003F6D50CE0FFF752FB804605E093
:1015A000FFF74EFBA0EB0800642896D8286880035C
:1015B000F6D4207880073BD5042E11D00C2E01D113
:1015C000022F0DD0E06801E086E1D6E0002828680F
:1015D0001ED040F480702860FFF732FB07460CE015
:1015E000286840050CD5E0680028C1D008E000BF9D
:1015F000FFF726FBC01B022893D828684005F7D5C3
:101600006868217C20F0F85040EA016068600FE0D3
:1016100020F480702860FFF713FB074605E000BF49
:10162000FFF70EFBC01B0228B1D828684005F7D48D
:101630002078000729D560690028D5F8940012D0D9
:1016400040F00100C5F89400FFF7FAFA074604E0FD
:10165000FFF7F6FAC01B022899D8D5F89400800746
:10166000F6D512E000E120F00100C5F89400FFF784
:10167000E7FA074605E000BFFFF7E2FAC01B0228C1
:101680007BD8D5F894008007F6D42078400766D53B
:10169000A86D0027C00008D4A86D40F08050A86550
:1016A000A86D012700F08050009052480168C905DC
:1016B00012D40168814641F480710160FFF7C0FADD
:1016C000804605E0FFF7BCFAA0EB0800022854D8DA
:1016D000D9F80000C005F5D5A068012816D0052866
:1016E000D5F8900017D020F00100C5F89000D5F88B
:1016F000900020F0040000BFC5F89000A06841F2FF
:101700008839C0B1FFF79CFA80460FE0D5F8900009
:1017100040F00100F0E740F00400C5F89000F5E764
:10172000FFF78EFAA0EB0801494526D8D5F89000BE
:101730008007F5D50EE0FFF783FA804606E000BF8C
:10174000FFF77EFAA0EB0801494516D8D5F89000BE
:101750008007F5D41FB1A86D20F08050A865A06A5D
:10176000F0B302280AD00C2E7ED0286820F08070BA
:101770002860FFF765FA0446B0E0ACE0E868E26A8A
:1017800000F00301914229D1216B00F070020901A0
:101790001039914222D1626B00F4FE41B1EB022F6D
:1017A0001CD1A26B00F40031072A01D0012200E015
:1017B0000022914212D1A18F00F4C00249084905CC
:1017C000A1F50011914209D194F8401000F0C060D9
:1017D00049084906A1F1007181425ED00C2E0BE050
:1017E00072E00000001002405C5D0008480000103C
:1017F000400000100070004079D02868400176D485
:101800002868C00073D4286820F080702860FFF733
:1018100017FA064605E000BFFFF712FA801B022800
:1018200059D828688001F7D4D4E90B016FF00F0272
:1018300002EB01110843A18F5204490802EB415108
:10184000626B41EA0221084394F840104FF07E4257
:10185000490802EB41610843A16B090940EA414094
:10186000E968244A114000E041E00843E860286844
:1018700040F080702860E86840F08070E860FFF712
:10188000DFF9044605E000BFFFF7DAF9001B022884
:1018900021D828688001F7D527E02868800124D462
:1018A000286840F080702860E86840F08070E86048
:1018B000FFF7C6F9044604E0FFF7C2F9001B02284F
:1018C00009D828688001F7D50FE000BFFFF7B8F905
:1018D000001B022802D90320BDE8F8832868800194
:1018E000F4D4E86804490840E8600020F4E70120E7
:1018F000F2E700008C809DF9FCFFEEFE10B50B4670
:101900000168896A596001680969C1F30E0199602B
:10191000006801680D480140C1F305401870C1F32B
:1019200006245C7001F07F049C70890DD97052B957
:1019300001F06EFA1870587801F06AFA58709878C9
:1019400001F066FA9870002010BD00007F7F7F00D4
:1019500010B504004FF0010044D094F8210028B9DC
:10196000002084F82000204600F040F8022084F88F
:1019700021002168CA20486221685320486220461D
:1019800001F05CFA00282DD120688168164A1140C8
:101990008160216888686268A369104322691A43DC
:1019A000104388602168E068086120680169228925
:1019B00041EA02410161204601F064FA002811D198
:1019C0002168CA6C22F00302CA646269E1691143AA
:1019D0002268D36C1943D1642268FF21516201212E
:1019E00084F8211010BD0000BFFF8FFF10B5A2B01A
:1019F000044688216846FEF7E9FD0B4920688842C5
:101A000010D14FF400300090001221906846FFF78B
:101A1000F9F908B1FEF7BAFF044850F8901F41F4F5
:101A20000041016022B010BD0028004000100240BB
:101A300070B5044690F820000B4601281BD0012603
:101A400084F82060022084F82100B2B19878D97817
:101A500040EA014558781978000240EA41300543D0
:101A60002168CA204862216853204862204601F05C
:101A7000E5F9D0B120E0022070BD5878C10603D549
:101A800000F0EF000A305870D87801F0CAF9050468
:101A9000587801F0C6F945EA0025987801F0C1F9B7
:101AA0000543187845EA4035DAE7084805402068DC
:101AB0004560204601F0E6F92268FF21516208B92D
:101AC00084F82160002184F8201070BD3FFFFF00E2
:101AD0002DE9F041044690F8200090460D4601287B
:101AE00011D0012784F82070022084F82100216899
:101AF000CA204862216853204862204601F09EF9BE
:101B0000002618B129E00220BDE8F0812068B8F174
:101B1000000F80684FEA406024D0002800DBEE70A0
:101B2000A8782978EA7840EA01406978090241EA10
:101B3000825108431849084021680860206881687C
:101B400021F480218160D5E90301084321688A6876
:101B500010438860204601F095F92268FF21516208
:101B6000A0B115E0002800DBEE70287801F059F9EB
:101B70000304687801F055F943EA0023A87801F0DE
:101B800050F90343E87843EA8050D3E784F82170A2
:101B900084F82060B8E700007F7F7F0070B50446BE
:101BA0000068C16821F0A001C160FFF749F805464F
:101BB0004FF47A7607E000BFFFF742F8401BB042CF
:101BC00001D9032070BD2068C0688006F4D50020CC
:101BD00070BD90F85D00704770B5040009D0606A70
:101BE000002540B125616561A56294F85D0040B1B2
:101BF0000CE0012070BD6068B0F5827FF4D0E56133
:101C0000F2E784F85C50204600F056F8022084F891
:101C10005D002068016821F040010160E1684FF437
:101C2000E062914201D9002001E04FF48050B1F50B
:101C3000706F02D0914200D0A562A188228901F480
:101C4000827102F404421143227C02F00202114329
:101C5000227D02F001021143228B02F40072114333
:101C6000227F02F03802114394F8202002F0800213
:101C70001143228D02F40052114322681160A169C0
:101C8000042202EA114194F8242000F4805002F06A
:101C90001002114394F8342002F008021143A28983
:101CA00002F47062114301432068416025660120FF
:101CB00084F85D00002070BD70B586B00446142124
:101CC0006846FEF783FC214E256800212048022249
:101CD00003230524B54219D1056E45F480550566E8
:101CE000056E05F480550595C56C45F00105C56484
:101CF000C06C02AD00F00100059085E81A00E020FC
:101D0000CDE9000269464FF090401AE0114EB5420D
:101D100019D1856D45F480458565856D05F480454F
:101D20000595C56C45F00805C564C06C02AD00F0B2
:101D30000800059085E81A001A20CDE900026946DE
:101D40000548FEF769FE06B070BD00000030014096
:101D50000010024000380040000C00482DE9F84F08
:101D6000044690F85C0000271D4616468946012867
:101D70000DD04FF0010B84F85CB0FEF761FF804698
:101D800094F85D00BA46012804D00227A4E002209E
:101D900000F0A8B8B9F1000F74D0002E72D0032063
:101DA00084F85D00C4F860A0C4F83890A687E68780
:101DB000C4F840A0A4F844A0A4F846A0C4F850A0D9
:101DC000C4F84CA0A068B0F5004F09D120680168A4
:101DD00021F0400101602068016841F48041016008
:101DE00020680168490603D4016841F040010160A0
:101DF000E068B0F5E06F606823D908B1012E1CD10E
:101E0000A06B21680088C86006E0206881688907A7
:101E100009D5A16B0988C160A06B801CA063E08F0D
:101E2000401EE08709E0FEF70BFFA0EB0800A84288
:101E300002D3681C01D046E0ADB3E08F0028E4D1A6
:101E400036E008B1012E30D1E08F0128A06B03D914
:101E500021680088C8600FE021680078087314E0EA
:101E6000E08722E020688168890714D5E18F012985
:101E7000A16B08D90988C160A06B801CA063E08FAA
:101E8000801EEDE727E009780173A06B401CA0637A
:101E9000E08F401EE4E7FEF7D3FEA0EB0800A84267
:101EA00002D3681C01D00EE06DB1E08F0028D9D1BB
:101EB00042462946204601F0E5FA08B12020206676
:101EC000A06810B105E0032706E02068C1688068BB
:101ED0000090206E00B1012784F85DB084F85CA00A
:101EE000384655E718BCBDE8E08F2DE9F05F0446A1
:101EF00090F85C0000270A9E1D4692468B464FF0E4
:101F0000010901280ED0012084F85C00FEF798FE3C
:101F1000804694F85D00616801280CD0B1F5827F9D
:101F200007D102E0022000F011B9A16809B9042824
:101F300001D0022700E1BBF1000F24D0BAF1000F5D
:101F400021D005B394F85D00042802D0052084F860
:101F50005D0000202066C4F840A0A4F84650A4F814
:101F60004450C4F838B0E587A587E0642065E06890
:101F70004FF4E061884201D8012D06D920684268FB
:101F800022F4805205E00127D6E02068426842F43E
:101F90008052426020680268520603D4026842F010
:101FA00040020260E0688842606845D908B1012DAE
:101FB0003AD1A06B21680088C860A06B801CA06328
:101FC000E08F401EE0872FE02068816889070FD5E9
:101FD000E18F69B1B9F1010F0AD1A16B0988C16024
:101FE000A06B801CA063E08F401EE0874FF00009CB
:101FF00020688168C9070FD0B4F8461061B1C06885
:10200000216C0880206C801C2064B4F84600401EBF
:10201000A4F846004FF00109FEF712FEA0EB0800FD
:10202000B04201D3701C75D1E08F0028CCD1B4F838
:1020300046000028C8D176E008B1012D6CD1E08FB0
:102040000128A06B08D921680088C860A06B801C9B
:10205000A063E08F801E07E0216800780873A06B02
:10206000401CA063E08F401EE08755E02068816837
:1020700089071AD5E18FC1B1B9F1010F15D1E18FEF
:102080000129A16B07D90988C160A06B801CA063DE
:10209000E08F801E06E009780173A06B401CA063EE
:1020A000E08F401EE0874FF0000920688168C90773
:1020B00028D0B4F8461029B3B4F84610012914D931
:1020C000C068216C0880206C801C2064B4F8460035
:1020D000801EA4F84600B4F84600012810D82068F5
:1020E000416841F4805141600AE0007B216C087036
:1020F000206C401C2064B4F84600401EA4F8460042
:102100004FF00109FEF79CFDA0EB0800B04202D39E
:10211000701C01D018E0BEB1E08F0028A6D1B4F841
:1021200046000028A2D142463146204601F0AAF9D5
:1021300010B1012720202066012084F85D000020D6
:1021400084F85C003846EEE60327F5E730BCBDE8CE
:10215000C09F10B5401EB0F1807F01D3012010BD9B
:102160004FF0E02460610F21601701F05FFF002055
:10217000A06107202061002010BD0000F0B590F89C
:102180003C20012A39D0012480F83C40022280F80A
:102190003D20026853689568194E1A4FB24201D02B
:1021A000BA4204D123F4700C4B6843EA0C0323F0C9
:1021B000700C0B6843EA0C0353600268B24210D003
:1021C000B2F1804F0DD0104B9A420AD00F4B9A4279
:1021D00007D00F4B9A4204D0BA4202D00D4B9A421C
:1021E00004D1896825F080031943916080F83D404F
:1021F000002180F83C100846F0BD0220F0BD000030
:10220000002C014000340140000400400008004060
:10221000000C00400040014010B5040003D094F8C9
:102220003D0010B107E0012010BD002084F83C0003
:10223000204600F023F8022084F83D00211D20688C
:1022400001F0A4FA012084F8480084F83E0084F8E4
:102250003F0084F8400084F8410084F8420084F88C
:10226000430084F8440084F8450084F8460084F86C
:10227000470084F83D00002010BD000008B500684C
:10228000B0F1804F08D10548816D41F001018165B1
:10229000806D00F00100009008BD000000100240B9
:1022A00070B5044690F83C000025012817D001269F
:1022B00084F83C60022084F83D00226890682F4B2F
:1022C000184020F47F4090600868502838D00DDC1A
:1022D00020284FD005DC90B3102811D14AE002200D
:1022E00070BD302846D040280AD13BE060282FD06E
:1022F00070280DD0B0F5805F03D0B0F5005F12D02C
:10230000012584F83D60002084F83C00284670BD1B
:10231000CB68D1E90121206801F0A5FA2068816825
:1023200041F0770109E0CB68D1E90121206801F093
:102330009AFA2068816841F480418160E1E719E000
:10234000CA684968206801F029FC5021206806E02D
:10235000CA684968206801F032FC6021206801F0F9
:102360008CFACEE7CA684968206801F017FC402162
:102370002068F4E7226801461046F0E788FFFEFF78
:1023800010B586B0044614216846FEF71FF9206890
:10239000B0F1804F15D10C48C16C41F00101C1640E
:1023A000C06C694600F00100059002200090019089
:1023B000002002900390012004904FF09040FEF71F
:1023C0002BFB06B010BD00000010024070B50446A3
:1023D00090F83C0000260D4601280BD0012084F81F
:1023E0003C000C2A4AD007DC82B1042A20D0082AFB
:1023F00006D131E0022070BD102A53D0142A63D0D8
:102400000126002084F83C00304670BD206801F0B1
:102410003DFA2068816941F0080181612068816985
:1024200021F004018161206881692A69114311E06A
:10243000206801F079FA2068816941F400618161C6
:102440002068816921F480618161206881692A693D
:1024500041EA02218161D4E7206801F0ADFA2068E9
:10246000C16941F00801C1612068C16921F004011E
:10247000C1612068C1692A69114311E0206801F037
:10248000E3FA2068C16941F40061C1612068C16953
:1024900021F48061C1612068C1692A6941EA022191
:1024A000C161AEE7206801F009FB2068416D41F091
:1024B000080141652068416D21F0040141652068F3
:1024C000416D2A69114311E0206801F02FFB20685B
:1024D000416D41F4006141652068416D21F48061E6
:1024E00041652068416D2A6941EA0221416588E71A
:1024F00010B5040003D094F83D0010B107E00120AE
:1025000010BD002084F83C00204600F022F8022094
:1025100084F83D00211D206801F038F9012084F87D
:10252000480084F83E0084F83F0084F8400084F8B6
:10253000410084F8420084F8430084F8440084F8A1
:10254000450084F8460084F8470084F83D000020E8
:1025500010BD704730B50446022269B1042912D07B
:10256000082917D00C291CD0102921D094F8430039
:10257000012824D0012030BD94F83E000128F9D173
:1025800084F83E201DE094F83F000128F2D184F841
:102590003F2016E094F840000128EBD184F8402059
:1025A0000FE094F841000128E4D184F8412008E0CC
:1025B00094F842000128DDD184F8422001E084F83B
:1025C00043200122206801F041F91A4A20681A4B81
:1025D0001A49904209D0984207D0884205D0184D38
:1025E000A84202D0174DA84203D1456C45F40045DE
:1025F0004564206890420FD0B0F1804F0CD0124A51
:10260000904209D0114A904206D0114A904203D01C
:10261000984201D0884207D181680E4A11400629AC
:1026200006D0B1F5803F03D0016841F0010101609F
:10263000002030BD002C014000340140004001402A
:1026400000440140004801400004004000080040F0
:10265000000C00400700010010B5040002D0A06F7C
:1026600010B107E0012010BD002084F8740020465E
:1026700000F026F82420A0672068016821F00101FD
:102680000160204601F040FB0128ECD0606A10B1E7
:10269000204601F0A6FA2068416821F4904141608B
:1026A0002068816821F02A0181602068016841F07A
:1026B000010101602046BDE8104001F0F6BA0000BB
:1026C00010B5A8B00446142122A8FDF77FFF882189
:1026D0006846FDF77BFF17492068884227D1012013
:1026E000002400900E946846FEF78CFB08B1FEF7BC
:1026F0004DF91148016E41F480410166016E01F40B
:1027000080412791C16C41F00201C164C06C22A9D3
:1027100000F002002790C02022900220CDE923047F
:1027200003202590072026900448FEF775F928B06D
:1027300010BD0000003801400010024000040048B5
:102740002DE9F8430446806F1F4616460D462028A3
:102750004FD1CDB1C6B194F87400012849D0012001
:1027600084F874004FF00008C4F880802120A0672E
:10277000FEF766FAA4F850608146A4F85260A0689B
:10278000B0F5805F03D004E00120BDE8F883206944
:1027900028B12E465FF0000584F8748010E0002612
:1027A000FAE78021204601F0D3FBB8B9C6B116F88C
:1027B000010B21680885B4F85200401EA4F85200AD
:1027C000B4F852004B464FF0000200970028E8D1C1
:1027D0004FF04001204601F0BBFB30B10320D4E7AD
:1027E00035F8020BC0F30800E3E72020A0670020C3
:1027F000CBE70220C9E7FEE710B504490448FEF71D
:10280000C7F80249491E087010BD000035000010CD
:10281000200000102DE9F04786B014216846FDF72E
:10282000D5FE4948C16C41F00401C164C16C01F09E
:1028300004010591C16C41F08001C164C16C01F0DB
:1028400080010591C16C41F00101C164C16C01F0CE
:1028500001010591C16C41F00201C164C16C01F03C
:1028600002010591C16C41F00801C164C06C4FF0D8
:10287000904600F008000590002204213046FEF743
:10288000DAF9DFF8C880002230214046FEF7D3F99C
:10289000DFF8BCA000224FF486415046FEF7CBF98A
:1028A000DFF8B090012220214846FEF7C4F9012448
:1028B0000420CDE90004002569463046CDE90245F3
:1028C000FEF7AAF8082000904FF40410CDE90104A7
:1028D00069463046FEF7A0F81020CDE900046946AD
:1028E0004046CDE90245FEF797F820260227CDE9BC
:1028F0000064CDE9027569464046FEF78DF84FF455
:10290000824003958DE8910069465046FEF784F8B1
:10291000CDE9006469464846CDE90245FEF77CF8FA
:102920006002CDE9000469465046CDE90245FEF754
:1029300073F8002211460920FEF7E6F90920FEF798
:10294000D5F906B0BDE8F087001002400008004845
:1029500000040048000C004810B586B014216846F9
:10296000FDF734FE1E4800241C490594C0E90014FC
:102970007F218160FF21C0E9031444618461C46147
:10298000FEF7E6FF08B1FEF701F811208DF8000010
:1029900024208DF801008DF802400394012269463D
:1029A0000F480494FFF794F808B1FDF7EFFF0520F6
:1029B0008DF8140006208DF8150009208DF81600FA
:1029C00023208DF81700012205A90548FFF730F8EC
:1029D000002801D0FDF7DAFF06B010BD0028004046
:1029E00074000010124810B5104901604FF4827154
:1029F000416000214FF4E062C0E902120122C0E907
:102A00000412520282611022C0E9072107224162AA
:102A1000C0E90A1201634163FFF7DEF8002803D022
:102A2000BDE81040FDF7B2BF10BD0000003001400E
:102A300098000010124810B5104901604FF48271DF
:102A4000416000214FF4E062C0E902124FF40072CD
:102A50000161C0E90512C161016207224162C0E95A
:102A60000A12016308214163FFF7B6F8002803D07A
:102A7000BDE81040FDF78ABF10BD000000380040DF
:102A8000FC00001010B58EB000240794089409943F
:102A90000A940B940C941C2168460D94FDF796FD46
:102AA0001D484FF08041C0E900141321C0E90241E4
:102AB000802104618161FFF7AFFB08B1FDF766FF7C
:102AC0004FF48050079007A91348FFF7E9FB08B1BE
:102AD000FDF75CFF1048FFF70BFD08B1FDF756FF4F
:102AE0000B940BA90C480D94FFF748FB08B1FDF7B8
:102AF0004DFF602000900A20CDE9010404226946C0
:102B000005480494FFF762FC08B1FDF73FFF024857
:102B1000FFF736FC0EB010BD600100100D4810B577
:102B20000B4901604FF461214160002181600C225A
:102B3000C160C0E904128161C16101624162FFF7B5
:102B40008BFD002803D0BDE81040FDF71FBF10BD6E
:102B500000380140AC010010FEE7FEE770470000BE
:102B60002DE9F041444C05468846E068002681077F
:102B700028680DD0E16801F00301814216D1A8B1A7
:102B8000E0686968C0F30210401C88420ED120E062
:102B9000012804D0022805D0032807D108E02168C5
:102BA000890701E021684905002907DB01265FE06C
:102BB0002168890302D421684903F5E7E1686A685E
:102BC0006FF00F0321F0730103EB02121143014375
:102BD000E160206820F080602060FEF731F8074651
:102BE00005E000BFFEF72CF8C01B022837D820688C
:102BF0000001F7D4B8F1000F18D0B8F1010F1ED0C2
:102C0000287D4FF07E41400801EB4060A96840EA12
:102C100001202169194A114008432061206840F0D1
:102C200080602060FEF70CF807461AE0A868E968A3
:102C30000002090940EA41402169114AEBE7288A6C
:102C40001049400801EB4050A96840EA0120216981
:102C50000D4AE0E7FDF7F4FFC01B022801D9032667
:102C600006E020680001F5D52069A96908432061C4
:102C70003046BDE8F081000000100240FF80FFF9FF
:102C8000FF80FDFF0000E0FFFF809FFF2DE9F04186
:102C90003D4C06468846E0680025810730680DD027
:102CA000E16801F00301814216D1A8B1E0687168C2
:102CB000C0F30210401C88420ED120E0012804D04D
:102CC000022805D0032807D108E02168890701E020
:102CD00021684905002907DB012551E021688903A6
:102CE00002D421684903F5E7E16872686FF00F03C9
:102CF00021F0730103EB021211430143E1602068EC
:102D000020F080502060FDF79BFF074605E000BFE4
:102D1000FDF796FFC01B022829D820688000F7D451
:102D2000B8F1000F15D0307C4FF07E41400801EB28
:102D30004060B16840EA01206169144A11400843CB
:102D40006061206840F080502060FDF779FF074601
:102D50000FE0B068F1680002090940EA414061698A
:102D60000B4AEBE7FDF76CFFC01B022801D90325D6
:102D700006E020688000F5D56069716908436061EC
:102D80002846BDE8F081000000100240FF80FFF9F6
:102D9000FF80FDFFF8B51C4D06460024A86DC0005D
:102DA00002D5FEF717F80DE0A86D40F08050A86539
:102DB000A86D00F080500090FEF70CF8A96D21F08E
:102DC0008051A965B0F5007F04D0802E07D94FF05F
:102DD00003040AE0802E08D9A02E01D804E001D116
:102DE000022402E0702E00D101240848016821F07D
:102DF000070121430160006800F00700A04201D0F4
:102E00000120F8BD0020F8BD001002400020024063
:102E1000010901EB810100F00F0000EB4100C0B29D
:102E200070470022014602E00A39C9B2521C0A2941
:102E3000FAD2100741EA1060704700002DE9F04116
:102E4000044600680025C168490617D4691EC160A0
:102E5000FDF7F6FE06464FF47A78032708E000BF38
:102E6000FDF7EEFE801B404502D9032584F8217052
:102E70002068C068400601D4032DF1D12846BDE882
:102E8000F08100002DE9F041064613480025016855
:102E900021F080010160041F20684FF003078006C5
:102EA00007D43046FEF77AFE90B186F821700325EC
:102EB0000EE0206820F0200020603046FEF76EFE15
:102EC00010B186F821700325206840F020002060B2
:102ED0002846BDE8F08100000C28004006484178F3
:102EE00011B14178491E41708178002902D0817862
:102EF000491E817070470000180000107CB541F633
:102F0000FF75FDF7FDFC0024FF2000F0F9FA641CBA
:102F10000A2CF9DB00F0AEFA40208DF8000000200A
:102F20008DF801008DF802008DF803008DF8040083
:102F300095208DF8050000246E46305D00F0E0FA23
:102F4000641C062CF9DB00E06D1E00F0BFFA0128BE
:102F500001D0002DF8D1FDF7D3FCFF2000F0D0FA0E
:102F60000149012048707CBD7100001010B5064C6D
:102F70003220208000F0AAFA00F0A8FAFF2802D040
:102F800021880029F8D110BD1A00001070B5124C2C
:102F900005460A200E462080FF2002F0C9FEFF28C9
:102FA00003D0FE2805D0002070BD20880028F3D172
:102FB000F9E7002404E000BF02F0BAFE2855641CC3
:102FC000B4424FF0FF00F7D302F0B2FEFF2002F050
:102FD000AFFE012070BD00001900001070B50C4656
:102FE0000546FFF7C3FFFF2801D0FF2070BD28462C
:102FF00000F086FA200E00F083FAC4F3074000F0D8
:103000007FFAC4F3072000F07BFAE0B200F078FA10
:103010000020402D06D0482D06D000F071FA4C2D2E
:1030200006D007E0952000E0872000F069FA01E073
:1030300000F04CFA5FF00A0400F048FA0106D5D51A
:10304000641E14F0FF04F7D170BD70B50C46054640
:10305000FFF78CFFFF281AD1204602F069FEFD2CF5
:1030600017D04FF400760024285D02F061FE641C46
:10307000B442F9D3FF2002F05BFEFF2002F058FEBD
:10308000FF2002F055FE00F01F00052801D00020AF
:1030900070BD012070BD00002DE9F84310B1012082
:1030A000BDE8F883DFF8208198F80000800702D59A
:1030B00098F80000F4E7FFF721FF00F0DBF90024A7
:1030C00021464020FFF78AFF01286CD13F4E642043
:1030D00030804FF4D5714820FFF780FF01280DD0D4
:1030E00000217720FFF77AFF01283ED800216920D0
:1030F000FFF774FF012838D802243DE000256F4611
:1031000000F0E4F978556D1CEDB2042DF8D39DF86C
:103110000200012847D19DF80300AA2843D14507A2
:1031200000217720FFF75AFF012804D8294669209B
:10313000FFF754FF10B130880028F1D1308890B3E8
:1031400000217A20FFF74AFF68BB002400F0BEF997
:103150003855641CE4B2042CF8D39DF800004006F6
:1031600001D506241FE002241DE0012401E0022C09
:1031700002D00021412007E000217720FFF72EFF39
:10318000012804D800216920FFF728FF10B13088FA
:103190000028ECD1308828B14FF400715020FFF79F
:1031A0001DFF00B10024454688F80240FDF7A8FB4A
:1031B00000F08CF924B1287820F00100287001E09B
:1031C0000020687028786BE771000010190000106B
:1031D0007FB515460E4610B1042004B070BD012421
:1031E0004B48052E04D00078C00715D00320F4E723
:1031F00047492A7849782AB1012A07D0022A08D0FB
:10320000042482E031B10021417003E0FFF776FE33
:1032100000E06970002478E000F02CF90B2E52D009
:1032200005DCE6B3012E07D0022E69D142E00C2E58
:103230004CD00D2E64D155E000214920FFF7CEFE81
:1032400070BB10216846FFF7A1FE48B39DF800103F
:103250000120B0EB911F0AD19DF808209DF80910BC
:1032600000EB0220084400048009286038E09DF843
:1032700005009DF80A1000F00F0000EBD1109DF83A
:1032800009109DF8072001F0030100EB41009DF8B3
:103290000810890901EB82019DF8062001E00DE08C
:1032A0002FE002F0030201EB8221C01F491C814084
:1032B000296015E04FF40070288011E0FFF756FEFA
:1032C000FF280DD01DE00021492001E000214A2007
:1032D000FFF784FEA8B910212846FFF757FE80B1FA
:1032E00000240EE000217A20FFF778FE40B9002488
:1032F00000F0ECF8641CE4B205F8010B042CF7D3E1
:103300000424FDF7FDFA00F0E1F8204665E700002F
:10331000710000102DE9F0411C4615460E4638B9E3
:1033200034B121480178C90704D00320BDE8F081F9
:103330000420FBE78078400700D4550200F09AF89B
:103340004FF40077012C294604D05220FFF746FEA7
:1033500070B11AE05120FFF741FEE0B9394630461E
:10336000FFF714FEB8B1FDF7CBFA00F0AFF818E0A4
:1033700039463046FFF70AFE18B1641E06F500769E
:10338000F6D100214C20FFF729FEFDF7B9FA00F035
:103390009DF824B905E0FDF7B3FA00F097F8012095
:1033A000C4E70020C2E700007100001008B101204E
:1033B0007047014800787047710000102DE9F04116
:1033C0001C4616460F4638B934B1294D2878C00737
:1033D00004D00320BDE8F0810420FBE728784007F3
:1033E00001D50220F6E7A878400700D4560200F085
:1033F00041F8012C10D0A878800707D5002177204C
:10340000FFF7ECFD21465720FFF7E8FD3146592034
:10341000FFF7E4FD78B11CE031465820FFF7DEFDF0
:10342000F0B9FE213846FFF710FEC8B1FDF768FA83
:1034300000F04CF819E0FC213846FFF706FE18B101
:10344000641E07F50077F6D1FD210020FFF7FDFD92
:1034500030B1FDF755FA00F039F834B10120B9E781
:10346000FDF74EFA00F032F8F8E70020B2E700006E
:1034700071000010002220210148FDF7DCBB000094
:10348000000C0048F8B515460E460B46009204465F
:1034900000224FF4C05100F043F888B933460022AF
:1034A00080212046009500F0AFF848B9334600224D
:1034B0004FF4C0612046009500F032F8002804D097
:1034C000206E40F0200020660320F8BD0EB5FF20DE
:1034D0008DF8080000208DF804000848FEF779FBFD
:1034E0000128FAD14FF47A700090012301AA02A9B1
:1034F0000248FEF7FAFC9DF804000EBDFC00001027
:1035000001B50648FEF765FB0128FAD14FF47A733E
:10351000012269460148FEF721FC08BDFC000010AD
:103520002DE9FE4F4FF0000A984617460E46044616
:103530000C9D8DF804A0FDF783FB411BA8EB010552
:10354000FDF77EFB814620684FF4C06B0C30029083
:103550002A480068C0EBC00000EB8000000D684303
:10356000009043E05E4506D12FB9029800788DF8AF
:1035700004009DF80400B8F1FF3F37D0FDF760FB71
:10358000A0EB0900A84203D215B1009858B32BE074
:103590002068416821F0E00141606068B0F5827FF9
:1035A0000BD1A068B0F5004F02D0B0F5806F04D108
:1035B0002068016821F040010160A06AB0F5005F59
:1035C00009D12068016821F4005101602068016878
:1035D00041F400510160012084F85D0084F85CA092
:1035E000032000F00DB80025401E00902068806880
:1035F0003040B842B6D10020F3E700004800001088
:103600001EBCBDE8E08F00002DE9F8431E46914640
:1036100088460446089DFDF713FB401B351AFDF74D
:103620000FFB074625480068C0F3CB30684338E0FD
:10363000701C37D0FDF704FBC01BA84203D215B1A4
:10364000009860B32CE02068416821F0E0014160FF
:103650006068B0F5827F0BD1A068B0F5004F02D052
:10366000B0F5806F04D12068016821F0400101604D
:10367000A06AB0F5005F09D12068016821F400510B
:1036800001602068016841F400510160012084F864
:103690005D00002084F85C000320BDE8F88300256D
:1036A000401E00902068816838EA010004D00021A3
:1036B0004945BDD10020F0E70121F9E7480000109D
:1036C00070470000074810B50178491C0170017867
:1036D0000A2903D300210170FFF700FCBDE8104068
:1036E000FDF7B4BA1800001010B596B04421684632
:1036F000FCF76CFF142111A8FCF768FF4FF4007071
:10370000FDF734FB08B172B6FEE7FDF76BFB1A4814
:1037100050F8901F21F0180101601C20009001203A
:1037200002900590002460210690CDE90741022116
:10373000CDE90A100C9028200D900720CDE90E014C
:1037400068461091FDF74EFE08B172B6FEE70F20F5
:1037500011900320CDE912044FF4A060149015904D
:10376000042111A8FDF726FD08B172B6FEE7FDF7AA
:1037700041FB16B010BD0000001002400248016875
:1037800041F470010160704788ED00E02DE9F047D9
:103790000268264B264D274E274F284C4FF0804A73
:1037A000984209D0504507D0A84205D0B04203D076
:1037B000B84201D0A04204D122F0700C4A6842EA1B
:1037C0000C02DFF87CC0DFF87C80DFF87C90984248
:1037D0000FD050450DD0A8420BD0B04209D0B8420E
:1037E00007D0A04205D0604503D0404501D04845F0
:1037F00003D122F44075CA682A434D6922F0800241
:103800002A4302608A68C2620A688262984207D0CC
:10381000A04205D0604503D0404501D0484501D1C4
:103820000969016301214161BDE8F087002C014075
:103830000004004000080040000C0040003401403B
:1038400000400140004401400048014010B501F033
:103850001F030121046A99408C430462016A9A4063
:103860001143016210BD10B5846842EA032224F4BA
:103870007F440A432243826010BD826822F07002B6
:103880000A4342F007018160704700002DE9F043D0
:10389000026A22F001020262056A436882691C4CD6
:1038A00025F0020522400C6822F0030214438A68C6
:1038B000194E2A43174D194FDFF864C0DFF86490A2
:1038C000A84207D0B04205D0B84203D0604501D02D
:1038D000484506D122F00808CA6842EA080222F0E8
:1038E0000402A84207D0B04205D0B84203D06045D8
:1038F00001D0484505D14D6923F440731D438B69C0
:103900002B4343608461496841630262BDE8F083F0
:103910008FFFFEFF002C01400034014000400140B9
:103920000044014000480140F0B5026A22F0100254
:103930000262056A42688369194C1B4E23400C6879
:1039400023F4407343EA042425F020038D6843EAFE
:103950000513144DA84201D0B04206D1CF6823F020
:10396000800343EA071323F04003A8420AD0B04281
:1039700008D00E4DA84205D00D4DA84202D00D4DE5
:10398000A84207D14D6922F4406242EA85028D695E
:1039900042EA850242608461496881630362F0BD46
:1039A000FF8FFFFE002C0140003401400040014029
:1039B0000044014000480140F0B5026A22F48072E0
:1039C0000262056A4368C269194C1B4E22400C68AA
:1039D00022F00302144325F400728D6842EA0522A6
:1039E000144DA84201D0B04206D1CF6822F4006243
:1039F00042EA072222F48062A8420AD0B04208D0EC
:103A00000E4DA84205D00E4DA84202D00D4DA84241
:103A100007D14D6923F4405343EA05138D6943EA06
:103A200005134360C4614968C1630262F0BD0000D0
:103A30008FFFFEFF002C0140003401400040014098
:103A4000004401400048014030B5026A22F480522F
:103A50000262046A4268C369124D24F400542B4088
:103A60000D6823F4407343EA05238D6844EA053466
:103A70000D4DA8420BD00D4DA84208D00C4DA842C8
:103A800005D00C4DA84202D00B4DA84204D14D697F
:103A900022F4804242EA85124260C36149680164AF
:103AA000046230BDFF8FFFFE002C01400034014056
:103AB00000400140004401400048014030B5026A26
:103AC00022F480320262046A4268436D114D2B4039
:103AD0000D681D4324F400330C8943EA04430E4C63
:103AE000A0420BD00D4CA04208D00D4CA04205D0F6
:103AF0000C4CA04202D00C4CA04204D14C6922F4E0
:103B0000803242EA04224260456549688165036269
:103B100030BD00008FFFFEFF002C0140003401404B
:103B200000400140004401400048014030B5026AB5
:103B300022F480120262046A4268436D114D24F43B
:103B400000142B400D6843EA05230D8944EA05540F
:103B50000D4DA8420BD00D4DA84208D00C4DA842E7
:103B600005D00C4DA84202D00B4DA84204D14D699E
:103B700022F4802242EA8522426043654968C16599
:103B8000046230BDFF8FFFFE002C01400034014075
:103B900000400140004401400048014010B5036A64
:103BA000046A24F001040462846924F0F00444EA05
:103BB000021423F00A020A438461026210BD10B5A8
:103BC000036A23F0100303628369046A23F47043D9
:103BD00043EA023224F0A00343EA01118261016248
:103BE00010BD90F82410C90706D001684A68836A9E
:103BF00022F400321A434A6090F82410890706D54F
:103C000001684A68C36A22F480321A434A6090F815
:103C10002410490706D501684A68036B22F4802204
:103C20001A434A6090F82410090706D501684A68CB
:103C3000436B22F400421A434A6090F82410C906EC
:103C400006D501688A68836B22F480521A438A6021
:103C500090F82410890606D501688A68C36B22F49F
:103C600000521A438A6090F82410490611D5016861
:103C70004A68036C22F480121A434A60016CB1F561
:103C8000801F06D101684A68436C22F4C0021A43BF
:103C90004A6090F82410090606D501684A68806CCD
:103CA00022F4002202434A607047F8B50026044619
:103CB000C0F88060FCF7C4FF0546206800686FF01C
:103CC0007E47000708D52B4600224FF400112046FE
:103CD000009700F03DF960B92068006840070AD5F8
:103CE0002B4600224FF480012046009700F030F967
:103CF00008B10320F8BD2020A067E067266684F89D
:103D000074600020F8BD00002DE9F0410446016810
:103D100080682269E3691043626900251A431043F1
:103D2000814F0A68814B1A4002430A60206841684B
:103D3000E26821F44051114341602168A069B94211
:103D400001D0226A10438A6822F4306202438A60FA
:103D50007749226877488A420DD1D0F8880010F060
:103D6000030006D0012866D0022854D0032851D180
:103D700063E001204FE070498A420BD1D0F88800FF
:103D800010F00C0047D0042845D0082851D00C284A
:103D900040D152E069498A420BD1D0F8880010F036
:103DA000300038D0102846D0202842D0302831D1D9
:103DB00043E063498A420BD1D0F8880010F0C0007C
:103DC00029D0402837D0802833D0C02822D134E0F1
:103DD0005C498A420ED1D0F8880010F440701AD0A5
:103DE000B0F5807F27D0B0F5007F22D0B0F5407FBE
:103DF00010D122E0BA420DD1D0F8880010F4406012
:103E000009D0B0F5806F16D0B0F5006F11D0B0F5C5
:103E1000406F12D010204C4900264FF40043BA42A4
:103E20002ED160B102280DD004280DD008286FD102
:103E30000EE00220EFE70420EDE70820EBE7FDF7B6
:103E40005BFA03E00B4603E0FDF77AFA030060D06B
:103E5000626802EB420098425AD8B3EB023F57D84F
:103E6000190E1B025008181871410023FCF700FAC4
:103E7000364AA0F5407191424AD82168C86048E0AE
:103E8000E2694FF6EF779A4227D1092840D2DFE85E
:103E900000F005080D3F213F3F3F0E00FDF72CFAD3
:103EA00001E0FDF73BFA030001D132E00B46606808
:103EB000590001EB5001B1FBF0F0A0F11001B94243
:103EC00026D84FF6F0710140C0F34200014320684C
:103ED000C1601EE0FDF734FAE5E7092818D2DFE8F3
:103EE00000F005080D171D1717170E00FDF704FA4F
:103EF00001E0FDF713FA030001D10AE00B46606808
:103F000003EB5001B1FBF0F0A0F11001B94208D968
:103F1000012566662846A666BDE8F081FDF710FA21
:103F2000E9E780B2A9E7000000800040F369FFEFF5
:103F300000380140001002400044004000480040AA
:103F4000004C0040005000400024F400FFFC0F0033
:103F50002DE9F0479A4617460E4604464FF00009F1
:103F60004FF02008089D4AE0681C48D0FCF768FE26
:103F7000A0EB0A00A8422AD84DB32068016849077F
:103F80003DD5C069C043000539D421684FF40060B5
:103F90000862206850E8001F21F4D07140E8001248
:103FA000002AF6D12068083050E8001F21F00101F6
:103FB00040E80012002AF5D1C4F87880C4F87C806B
:103FC000C4F8808084F874900320BDE8F0872168ED
:103FD00051E8000F20F4D07041E80002002AF6D129
:103FE0002068083050E8001F21F0010140E800126D
:103FF000002AF5D1C4F87880C4F87C80E2E7206814
:10400000C06936EA000004D00020B842ACD00020DD
:10401000DBE70120F9E7FFF73FB8FFF7D9B8FFF773
:1040200079B9FFF7C3B9FFF7C9B9FEE70907090E68
:10403000002804DB00F1E02080F80014704700F055
:104040000F0000F1E02080F8141D704730380A2876
:1040500001D20120704700207047000010B50446CF
:104060000020E070401E6063204601F0D2FC08B1E1
:10407000042010BD04F2362001F0F8FBA0F52A411F
:10408000553901D0032010BD94F83800E92805D037
:10409000EB2814D194F83A00902810D104F16E0066
:1040A00001F0D9FB0749B1EB002F06D004F18A00DB
:1040B00001F0D1FB0449884201D1002010BD02204B
:1040C00010BD0000004641544641543300E0401CFE
:1040D00002780AB18A42FAD1D0B27047F0B5002214
:1040E000144D134605EB021426685EB10768BE4204
:1040F00009D166688768BE4205D1A4684669B442A2
:1041000004D000E00123521C022AEBD3022A01D082
:1041100069B904E04BB9022907D01220F0BD05EBC4
:1041200002108089B0F5807F01D00020F0BD102002
:10413000F0BD00003002001030B50021054B0C46E8
:1041400003EB01121568854200D11460491C022955
:10415000F6D330BD300200100268490AC06A5289A5
:10416000B1FBF2F1001D04C81AB1914203D3891AC0
:10417000F8E700207047006808447047C269891E4C
:10418000921E8A4201D800207047026B408901FBD1
:10419000002070472DE9F05F82460C4601F11A00BD
:1041A00001F064FB78BB2078012700F03F00401E3F
:1041B00000EB8001DFF8589001EBC00500264FF6B8
:1041C000FF7B00BF19F80600204401F04FFB80463A
:1041D0006FB1FF2D17D201F071F807463AF81500BC
:1041E0006D1C01F06BF887420DD1474601E0D845C0
:1041F00009D1761C0D2EE5D32078400606D52FB1C7
:104200003AF8150010B1002000F004B80120FBE7D7
:10421000245E000830BCBDE8C09F2DE9F041056870
:104220000F00804606D001F043FA022809D201208F
:10423000BDE8F0812E6916B1E869B04207D80126C1
:1042400005E0411CF4D0E9698142F1D83E4634468C
:10425000E869641CA04202D80224022E0AD3214637
:10426000404601F025FA38B10128E1D0411CDFD0E9
:10427000B442EDD10020DBE74FF0FF363246214655
:10428000284601F0DFFB30B957B1224639462846AF
:1042900001F0D8FB20B101280FD001242046C7E748
:1042A0002C61E9696869891E884201D8401E6861ED
:1042B000287940F001002871F0E73446EEE700006D
:1042C0002DE9F84F804600680E680024C7688946CB
:1042D0002546705D6D1C20281AD32F2813D05C282A
:1042E00011D0FF2C57D2012100F0CCFF5FEA000A69
:1042F00051D0BAF1800F12D201467CA0FFF7E6FE42
:1043000090BB0CE06D1C715D2F29FBD05C29F9D0AE
:104310007219C9F80020202805D2042504E027F8E6
:1043200014A0641CD5E700250021012C04D0022C28
:1043300024D178882E2818D138882E2815D127F82E
:1043400014100020A04201D22E2200E0202208EB0F
:104350000001401C81F824200B28F3D3404445F091
:10436000200280F82420BEE015E007EB440030F87E
:10437000020C202801D02E2802D1641E002CF4D17A
:1043800027F814103CB10B22202108F1240001F081
:1043900039FB002603E0062000F0B4B8761C37F89D
:1043A00016002028FAD02E28F8D01EB145F00305BB
:1043B00000E0641E2CB107EB440030F8020C2E28FC
:1043C000F7D14FF0000A4FF0080BCDF800A000BF66
:1043D00037F8160006F101065FEA000924D0B9F1AA
:1043E000200F04D0B9F12E0F04D1A64202D045F01F
:1043F0000305EDE70098584501D2A64219D1BBF15B
:104400000B0F0FD0A64201D045F003050CD84FF09A
:10441000080000904FEA8A6026464FF00B0B4FEAE7
:10442000106AD5E745F0030598F82400E52838D050
:104430003AE04846B9F1800F10D3002100F022FF86
:104440005FEA000905D02C4901EB090010F8800C47
:10445000814645F00205B9F1000F04D0014627A0BE
:10446000FFF734FE20B14FF05F0945F003050FE080
:10447000A9F14100192802D84AF0020A08E0A9F17E
:104480006100192804D841304AF0010A1FFA80F966
:10449000009A08EB020181F824900098401C0090DB
:1044A00096E7052188F82410BBF1080F03D14FEAE5
:1044B0008A604FEA106ACAF38100032803D06FEACA
:1044C0000A01890701D145F00205A90709D40AF0BC
:1044D0000301012901D145F01005012801D145F062
:1044E000080588F82F50002056E70000222A3A3CA1
:1044F0003E3F7C7F00000000A45D00082B2C3B3D6C
:104500005B5D000018BCBDE8E08F0000401E022883
:1045100012D20A4901EB00118889B0F5807F05D0DD
:1045200008B1401E80B2888110B103E00020FAE794
:104530000020086000207047022070473002001001
:104540002DE9F04704460021D0F8009000F0CFF9A3
:1045500000285BD1FF25471EA84627634846E1692E
:1045600001F057FA060050D1216A087850B1CA7A92
:10457000E52802F03F02A2713FD0130704D50F2AAD
:104580003BD105E0042640E00F2A01D0E5B120E050
:1045900094F82F20520632D4420606D591F80D80A9
:1045A00000F0BF00626905462263A84209D14A7B38
:1045B000424506D1D9F80C00FFF7ECFD08B16D1E9D
:1045C00000E0FF25EDB21AE0084601F01BFB404574
:1045D0001BD094F82F00C0070FD1D4F8201004F19D
:1045E00024000B2211F8013B10F8015B5B1B521EEB
:1045F00002D0002BF6D000E03BB1FF25276300215D
:10460000204600F005F80600A8D03046BDE8F08747
:104610002DE9F047054647690468C0698946203797
:1046200010B1B7F5001F02D30420BDE8F087F905EB
:1046300060D1401CE861A9694FF0000829B1608988
:10464000401E10EA572F05D054E02089B0EB571FC9
:104650001DD94FE0284601F02BF8064601281BD94A
:10466000701C33D0E069B0423ED8B9F1000F0ED0D3
:104670002846A969FFF7D1FD06000BD0012E0BD00B
:10468000701C23D0204601F00FFBF8B906E0C5F8F6
:104690001C80C9E70720C8E70220C6E74FF4007274
:1046A000002104F1380001F0ADF94FF00008314667
:1046B0002046FFF763FD4FF0010960630DE000BF86
:1046C00084F80390204601F0EFFA08B10120ACE72E
:1046D000606B08F10108401C606361894145EFD8B7
:1046E000616BA1EB0800606331462046AE61FFF7C5
:1046F00045FDE861C7F30800204438306F61286247
:10470000002092E72DE9F04F0446D0F8009090F891
:104710002F0089B010F0A00F03D0062009B000F0E0
:10472000E3B80025D9F80C0000E06D1C30F8151036
:104730000029FAD104F124010C226846039101F00A
:1047400057F99DF80B00C00719D0402084F82F00BE
:10475000012633466946D9F80C20039800F068FF1B
:104760002046FFF7EDFE10B9761C642EF1D3642EBF
:104770000FD00428D2D19DF80B0084F82F009DF8AB
:104780000B00800707D50D200C35B5FBF0F56D1C2F
:1047900002E00720C2E7012500212046276800F03B
:1047A000A6F888B900263846E16901F032F958B90F
:1047B000206A0078E5280AD048B100260121204669
:1047C000FFF726FF0028EED0042812D012E0761C56
:1047D0002846AE42F2D1451E059567D06169684210
:1047E00001EB4011204600F082F85FEA000803D098
:1047F00076E00720804673E0039801F003FA4FF655
:10480000FF7B07904846E16901F003F95FEA000881
:1048100066D1D9F80C0006900598D4F82080C0B273
:104820000490079988F80D100F2188F80B100021CB
:1048300088F80C1008F11A0001F0E0F90498DFF88C
:10484000A4A0401E00EB800101EBC006002701E0A0
:104850005D4503D0069830F81650761C1AF80710FC
:1048600001EB0800294601F0C9F905B95D467F1C36
:104870000D2FEDD35D4505D0069830F8160008B130
:10488000049803E0049840F04000049088F8000089
:10489000012189F8031000212046FFF7B9FE5FEAE5
:1048A00000081DD10598401E0590ABD14846E1692E
:1048B00001F0AFF85FEA000812D120220021206A3F
:1048C00001F0A0F80B22206A039901F091F894F806
:1048D0002F00216A00F018000873012089F80300F6
:1048E00040461BE7245E000830BCBDE8C08F2DE9C0
:1048F000F04107680E460546B1F5001F36D2F006B6
:1049000034D16E61AC6824B93878032805D3FC6AC9
:104910001CB178894FEA402812E03889B0EB561F65
:1049200024D9F86A12E0284600F0C2FE0446401C72
:104930001AD0022C1AD3F869A04217D9A6EB0806A0
:1049400046452146EFD23846FFF718FCC5E9064038
:1049500060B100EB5620E861C6F3080038443830F7
:1049600028620020BDE8F0810120FBE70220F9E782
:10497000084910B50B5C002253B901220A540A18E9
:1049800001EB8000127A40680168104688470246B1
:10499000104610BD5004001030B4054C231804EB31
:1049A00080001B7A406804691846A44630BC604702
:1049B0005004001030B4054D2C1805EB8000247A0B
:1049C000406885682046AC4630BC60475004001003
:1049D000044A111802EB8000097A406842680846D0
:1049E000104700005004001030B4054D2C1805EBA2
:1049F0008000247A4068C5682046AC4630BC6047D9
:104A00005004001011B58FB0002269460FA800F0C5
:104A100095FC040009D10098019001A80F9900F0BD
:104A2000BDFD040004D0042C13D010B0204610BDEE
:104A30009DF83300000601D5039807E09DF80A00B1
:104A4000C00606D50999009800F0F2FE0099886129
:104A5000EBE70524E9E738B5044600F001FB002840
:104A60000CD16946204601F048F9002806D120699A
:104A7000FFF74CFD002801D10021216038BD2DE950
:104A8000FE4F0D460446694601F037F9070064D130
:104A9000677D002FFBD1E06A4FF0020A4FF001085A
:104AA00004F1300B00286AD0691C29D0E068A842C4
:104AB00000D20546A561002D4FD02046691EFFF7A4
:104AC0004BFB0146E0610098FFF758FB002875D0CA
:104AD00000996D1E4A89521E02EA55221518208B34
:104AE000C005E9D0226AAA42E6D0207D00063BD567
:104AF000487801235946FFF777FF00286ED12FE051
:104B000002C80191A16883460225F1B10026AD1CBF
:104B1000029189462046761C00F0CAFD0146012814
:104B20004CD9481C5AD009F101008142F1D00198BA
:104B3000854206D8CBF800600BF10400029A04C04D
:104B400083460098C0698842E0D8E06A0560019811
:104B5000854203D80021CBF8001097E0112795E09B
:104B6000207D00F07F002075009801232A464078C0
:104B70005946FFF71FFF002830D1256286E0E06824
:104B8000A84203D2217D890700D405464FF00009D1
:104B9000A069C4F8189005B3009949894E0270B114
:104BA000691EB1FBF6F2401EB0FBF6F18A4206D355
:104BB000711E8843A0612D1AE1690DE04FE0A168E4
:104BC00049B900212046FFF728FB0146012846D0BD
:104BD000481C55D0A160E161D9B927E050E0A06937
:104BE000AD1B3044A061207D8007204605D5FFF72E
:104BF00014FB010004D100250DE000F059FD014631
:104C0000481C3DD001292AD90098C069884226D97C
:104C1000E161B542E3D8A0692844A061E80505D068
:104C20000098FFF7ABFAD0B100EB5529E168A06915
:104C3000884204D9E060217D41F040012175C00522
:104C400024D0226A4A4521D0207D000610D5009844
:104C5000012359464078FFF7C7FE88B904E084F87D
:104C600015A0022000F014B8207D00F07F00207510
:104C7000009801234A4640785946FFF79BFE18B139
:104C800084F815800120EDE7C4F820903846E9E764
:104C90001EBCBDE8E08F00002DE9F14F96B0022266
:104CA000694616A800F04AFB04000098089007D156
:104CB00008A8169900F072FC040002D0042C02D05F
:104CC00080E008247EE09DF84F00800601D5062490
:104CD00078E0002108A8FFF7A0FA00995FEA000831
:104CE00048894FEA40200B900FD0B8F1010F0ED049
:104CF000B8F1FF3F0DD0084600F0D6FF4FEA0004A0
:104D000000F035FD069034B157E00724F8E702249F
:104D1000F6E70124F4E741460098FFF72FFA009DDB
:104D200006464FF4007B38355A460021284600F0ED
:104D300069FE0B222021284600F064FE2E242C70F0
:104D40004FF0100A85F80BA005F11600069900F047
:104D50004DFF42462946009800F034FF05F120003F
:104D600020222946074600F043FE85F8214000989E
:104D70000A9A0178032903D1C16A914200D1002225
:104D8000394600F01FFF00984FF0010947897FB1B5
:104D90000098466380F80390761C00F085FF0400BD
:104DA0000BD15A460021284600F02CFE7F1EEFD181
:104DB00008A8FFF7A7FC040008D00022414608A875
:104DC00000F0B5FE17B0204600F014B8109C06990C
:104DD00004F1160000F00AFF42462146009800F058
:104DE000F1FE84F80BA0009880F8039000F018FF03
:104DF0000446E7E730BCBDE8C08F00002DE9F7416D
:104E000081B0904602980090684600F0B2FC040021
:104E100003D50B2004B0BDE8F0810D4E002756F8F5
:104E200024501DB12846FFF787F92F7001980028FC
:104E300000D0077046F8240002D0B8F1010F01D06D
:104E40000020E7E7002201A902A800F077FAE1E7D5
:104E5000500000102DE9F74394B005000BD002F08C
:104E60003F063246694615A800F068FA04004FF084
:104E7000000804D0ECE0092017B0BDE8F0830098EA
:104E8000049004A8159900F089FB04000ED19DF848
:104E90003F00000601D5062408E0700801D001217A
:104EA00000E0002104A8FFF719F9044616F01C0FD2
:104EB0005DD04FF00109C4B1042C10D10020674926
:104EC00002E0401C022804D201EB00121268002A02
:104ED000F7D1022807D004A8FFF714FC044646F0D7
:104EE00008065CB1B4E01224B2E09DF8160010F0A0
:104EF000110F47D1700701D50824A9E0300747D525
:104F000000F035FC07460C9839460E3000F06EFE76
:104F10000C983946163000F069FE0C982021C172B9
:104F20000C99009800F084FC074600220C99009828
:104F300000F048FE0C9800211C3000F057FE00994C
:104F400081F8039017B3D1F834900022394604A8B1
:104F500000F0EDFD04007BD14946009800F059FDBA
:104F600004000098A7F1010707610DD070E0ECBBC9
:104F70009DF81600C10601D5042469E0B10703D5E8
:104F8000C00701D0072463E0300701D546F0400692
:104F90000098406B68620C98A862700801D00121EB
:104FA00000E0002104A800F003FC2861B8B30C99CC
:104FB000009800F03DFCA8600C981C3000F04BFC01
:104FC000C5F82C80E86000992960009905F130004F
:104FD0004FF40072C988A9802E7585F81580C5F830
:104FE000208000218146C5F8188000E030E000F004
:104FF00009FDB0062ED5EE6866B3AE610098A968CB
:10500000408947020FE0284600F052FB0146012884
:1050100000D80224481C03D0F61B24B105E01BE095
:105020000124F61B01E0BE42EDD8E96184B9F00528
:1050300010D00098FFF7A2F870B100EB56222A6258
:105040000098012349464078FFF7B4FC10B10124D1
:10505000C5F8008020460FE70224F9E7300200106F
:10506000F8B50446694600F048FE00280ED1217DBF
:105070004A060BD508060ED50098226A012340780F
:1050800004F13001FFF7B0FC08B10120F8BD207D2C
:1050900000F07F00207500F06AFB0646616A009808
:1050A00000F0B7FC0028F1D1A56A2946E87A40F063
:1050B0002000E872A268206800F084FD05F11C0061
:1050C000E16800F093FD314605F1160000F08EFD19
:1050D000002105F1120000F091FD00980121C1703E
:1050E00000F09EFD217D01F0BF012175F8BD2DE985
:1050F000FE4F04460020884618609946154602A9CE
:10510000204600F0FAFD002806D1607D002803D17A
:10511000207D800702D4072000F0B0B8A0690127E5
:1051200042194FF0020A04F1300B824200D2C5430B
:105130009BE0A169C80575D102984089401E10EA1C
:10514000512618D129B1E06A38B12046FFF704F89A
:1051500007E0A06838B9002100E0E1692046FFF7C8
:105160005CF800287DD001282DD0411C54D0E0618E
:10517000A16801B9A060207D00060BD50298226AC3
:10518000012340785946FFF72FFCA0BB207D00F09B
:105190007F002075E1690298FEF7F0FF98B1304476
:1051A0000190680A009027D03218029841898A42FB
:1051B00001D9891B0091DDE9003240784146FFF7B3
:1051C00013FCC0B903E084F815A00220A4E7216A0B
:1051D0000198081A009988420AD208EB40214FF43E
:1051E0000072584600F004FC207D00F07F0020751E
:1051F0000098460228E00FE0216A019881420FD012
:10520000E168A06988420BD2029801235946407890
:10521000019AFFF7CFFB18B1677501207CE701E029
:1052200001982062208BC0F30800C0F50076AE42E2
:1052300000D92E46204432464146303000F0D8FB9B
:10524000207D40F080002075A069B0443044A0610A
:10525000E168884200D80846E060D9F8000081196A
:1052600000E005E0AD1BC9F80010002D7FF461AF30
:10527000207D40F04000207500204DE71EBCBDE8B9
:10528000E08F0000802804D30B4A51B1FF2801D9D8
:105290000020704702EB4000A0F58050B0F8000FEE
:1052A000704732F81130834203D0491C89B28029FB
:1052B000F7D38031C8B270474E5E000830B5B0F504
:1052C000805F01D21B4900E01B4931F8022B002A04
:1052D00015D0904213D331F8024B230AE5B252FAAB
:1052E00084F4844221D9092B09D2DFE803F00509AF
:1052F0000E11131517191B00801A31F8100030BD5C
:10530000811A01F00101401A00E0103880B230BD6E
:105310002038FBE73038F9E71A38F7E70830F5E7C7
:105320005038F3E7A0F5E350F0E7002BCDD101EBC7
:105330004501CAE74E5F0008406100082DE9FF41C2
:10534000002790460E460F6000F013FA050003D5C3
:105350000B2004B0BDE8F0818C4850F825409CB18A
:105360003460207808F0FE0620B16078FFF730FB4B
:10537000C1070BD02770E8B2B8466070FFF7F8FAA3
:10538000C10708D00320E4E70C20E2E70EB1400794
:1053900004D40020DDE71EB1400701D50A20D8E77C
:1053A000002631462046FEF759FE022822D100256C
:1053B0004FEA0D0704EB051090F8FA1100F5FB70A9
:1053C00019B1083000F047FA00E0002047F8250046
:1053D0006D1C042DEED3002557F8256036B13146FB
:1053E0002046FEF73BFE022801D203E003206D1C9D
:1053F000042DF1D3042809D002286DD204F1430012
:1054000000F034FAB0F5007F66D101E00120A0E79A
:1054100004F14E0000F02AFA18B904F15C0000F023
:105420001AFA206294F84850A570012D01D0022D7F
:1054300052D1454394F845006081E8B3411E0842CB
:105440004AD104F1490000F011FA2081000743D14C
:1054500004F14B0000F00AFA070004D104F15800EF
:1054600000F0F9F9074604F1460000F0FFF90100E9
:1054700032D02389481900EB131297422CD3B81A63
:105480006789B0FBF7F0B8B103274FF6F57C6045AC
:1054900000D8022740F6F57C604500D80127801C23
:1054A000324422633144E061C4E90961032F15D01D
:1054B00013B12944E16200E00EE0022F1FD000F09A
:1054C000010100EB400001EB500000BF216A00F237
:1054D000FF10B1EB502F14D20D203AE704F1620017
:1054E00000F0C4F90028F7D120890028F4D104F194
:1054F000640000F0B0F9E062E0698000E6E7400097
:10550000E4E74FF0FF306061206180202071032FBD
:105510002CD104F1680000F0A9F9012826D1711CF2
:10552000204600F076FA08BB84F8048004F23620A6
:1055300000F09CF9A0F52A41553917D104F1380043
:1055400000F089F91249884210D104F5077000F083
:1055500082F91049884209D104F5087000F07BF9FE
:10556000606104F5097000F076F920610749277041
:10557000091F0888401C0880E0800748C4F818808C
:10558000E0602046FEF7D8FD03E700005000001061
:1055900052526141727241615002001073B504466B
:1055A0000568019800782F2803D05C2801D0A969EC
:1055B00008E00198401C019000782F28F9D05C2861
:1055C000F7D00021A160019880260078202806D21B
:1055D00084F82F6000212046FFF789F97CBD01A9DE
:1055E0002046FEF76DFE0028F8D12046FEF7A8FF02
:1055F00094F82F1068B10428F0D18A0605D5480721
:10560000EDD584F82F6000207CBD4907FCD405202F
:105610007CBD4907FCD4A079C006F8D5A08AC0F3A8
:10562000080041192846383100F002F9A060D6E799
:105630007CB516461C4605460B2200F0D9F9052C10
:1056400011D91A4A0CE00021B61C2346044663F324
:105650005F044008E30300D55440491C1029F4D3EB
:1056600030880028EFD107214FEA0D0204F00F0027
:105670003030392800D9C01D5054491E2409F5D1B5
:105680007E205054002000E0401C884202D22B5C57
:10569000202BF9D1082902D2535C491C00E02023B9
:1056A0002B54401C0828F5D37CBD000021100100BC
:1056B0002DE9F04104680D4602290BD3E069A842A8
:1056C00008D920784FF0FF36012807D002282BD0C8
:1056D000032839D001263046BDE8F081A06A05EBE9
:1056E000550700EB5721204600F093F90028F2D12E
:1056F000C7F3080020447F1C90F83880A06A00EBB4
:105700005721204600F085F90028E4D1C7F30800AE
:10571000204490F8381048EA0120E90701D0060932
:10572000D9E7C0F30B06D6E7A06A00EB15212046A7
:1057300000F06FF90028CED1E8B204EB4000383019
:1057400000F094F80646C6E7A06A00EBD5112046A3
:1057500000F05FF90028BED140F2FF1000EA85009A
:105760002044383000F077F820F07046B3E700208E
:10577000704710B504464FF0FF302268002A13D05E
:10578000114600E0491C0B78202B0ED33A2BF9D19F
:1057900012F8013B303B0A2B06D28A4204D1002B7F
:1057A00002D1491C1846216010BD002010BD000028
:1057B000F0B502461D4BD2F80050002003EB001458
:1057C0002668AE4207D166689768BE4203D1A468D6
:1057D0005669B44202D0401C0228EFD3022814D1EB
:1057E000002002E0401C022804D203EB00142468CD
:1057F000002CF7D102280ED003EB00142560956829
:1058000065605269A2600022A281002903EB0011A9
:10581000898902D019B10020F0BD491C01E04FF484
:10582000807103EB0012401C9181F0BD300200102A
:1058300070B506460D4601F11A0000F017F804464F
:105840003078032805D105F1140000F00FF844EA80
:105850000044204670BDC178827842EA0121427836
:10586000007842EA012140EA01207047417800783F
:1058700040EA01207047000008B5FBF7EFF9FDF79B
:1058800033FFFCF7C7FFFDF749F9FDF7ABF8FDF76C
:1058900063F8FDF7CFF8FCF7AFFFFDF7F3F801224F
:1058A0003DA13E48FFF7AAFA3D4C607004F10800A4
:1058B000817800914378C2783AA13F48FAF750FDC9
:1058C0003D48FFF7E9F960703B48FFF79BF86070CF
:1058D000FAF790FFFAF772FF384F394D002646F677
:1058E000781941F288382078012829D12B490022E3
:1058F00014393448FCF702F82848143881780091AC
:105900004378027830A100F27C40FAF729FD2A4959
:10591000132214392948FFF79DFA60702748F96867
:10592000FFF7ADF81E4B60700C334A462D492348F3
:10593000FFF7DDFB60702148FFF78DF8607026707F
:105940002078022818D11C49132214391B48FFF76C
:1059500081FA60701948F968FFF791F86070104B90
:105960004A460C3315486168FFF7C1FB6070134865
:10597000FFF771F86070267029884145B3D11AA0ED
:1059800000F010F90020FAF7ABFF0120FAF7F9FE5A
:105990002888401E2880A6E7000000007C3C0120EB
:1059A000040000103230253032642E253032642E4F
:1059B0002530326400000000F8400120B43E012090
:1059C0001C000010740000104543475043475F25FA
:1059D000303264253032642E253032642E7478746F
:1059E0000000000078690020446F6E650000000030
:1059F000002A05D011F8013B00F8013B521EF9D1F5
:105A0000704700005FFA81F100F8011B521EFBD1C4
:105A1000704770B50446406B0D460026A8420FD073
:105A2000204600F041F906000AD1607801232A4699
:105A300004F13801FEF7BEFF08B1751E012665634B
:105A4000304670BD2DE9F047022617460D46044644
:105A5000022969D3E069A84266D920784FF001098C
:105A6000012804D0022836D003285DD143E0A16A82
:105A700005EB550801EB58212046FFF7CAFF060049
:105A800052D1C8F308002044383008F10108E90772
:105A900004D00178FAB262F31F1100E039460170B8
:105AA00084F80390A16A204601EB5821FFF7B1FF6B
:105AB000060039D1C8F3080020443830E90702D085
:105AC000C7F3071105E00178C7F3032201F0F001E5
:105AD0001143017026E0A06A00EB15212046FFF774
